{
  "contractName": "NotesContract",
  "abi": [
    {
      "anonymous": false,
      "inputs": [
        {
          "indexed": false,
          "internalType": "uint256",
          "name": "id",
          "type": "uint256"
        },
        {
          "indexed": false,
          "internalType": "string",
          "name": "title",
          "type": "string"
        },
        {
          "indexed": false,
          "internalType": "string",
          "name": "description",
          "type": "string"
        }
      ],
      "name": "NoteCreated",
      "type": "event"
    },
    {
      "anonymous": false,
      "inputs": [
        {
          "indexed": false,
          "internalType": "uint256",
          "name": "id",
          "type": "uint256"
        }
      ],
      "name": "NoteDeleted",
      "type": "event"
    },
    {
      "inputs": [],
      "name": "noteCount",
      "outputs": [
        {
          "internalType": "uint256",
          "name": "",
          "type": "uint256"
        }
      ],
      "stateMutability": "view",
      "type": "function"
    },
    {
      "inputs": [
        {
          "internalType": "uint256",
          "name": "",
          "type": "uint256"
        }
      ],
      "name": "notes",
      "outputs": [
        {
          "internalType": "uint256",
          "name": "id",
          "type": "uint256"
        },
        {
          "internalType": "string",
          "name": "title",
          "type": "string"
        },
        {
          "internalType": "string",
          "name": "description",
          "type": "string"
        }
      ],
      "stateMutability": "view",
      "type": "function"
    },
    {
      "inputs": [
        {
          "internalType": "string",
          "name": "_title",
          "type": "string"
        },
        {
          "internalType": "string",
          "name": "_description",
          "type": "string"
        }
      ],
      "name": "createNote",
      "outputs": [],
      "stateMutability": "nonpayable",
      "type": "function"
    },
    {
      "inputs": [
        {
          "internalType": "uint256",
          "name": "_id",
          "type": "uint256"
        }
      ],
      "name": "deleteNote",
      "outputs": [],
      "stateMutability": "nonpayable",
      "type": "function"
    }
  ],
  "bytecode": "0x60806040526000805534801561001457600080fd5b50610a5e806100246000396000f3fe608060405234801561001057600080fd5b506004361061004c5760003560e01c80632feaf81714610051578063317a4c761461006d57806361c3a7e61461008b578063c47177f4146100bd575b600080fd5b61006b6004803603810190610066919061050a565b6100d9565b005b61007561019b565b604051610082919061059b565b60405180910390f35b6100a560048036038101906100a091906105e2565b6101a1565b6040516100b49392919061068e565b60405180910390f35b6100d760048036038101906100d291906105e2565b6102db565b005b6040518060600160405280600054815260200183815260200182815250600160008054815260200190815260200160002060008201518160000155602082015181600101908161012991906108df565b50604082015181600201908161013f91906108df565b509050507f7b17cec98a34b9bfb820ec7d14bde246bd07fe7d020da060964a681219ce972560005483836040516101789392919061068e565b60405180910390a1600080815480929190610192906109e0565b91905055505050565b60005481565b60016020528060005260406000206000915090508060000154908060010180546101ca90610702565b80601f01602080910402602001604051908101604052809291908181526020018280546101f690610702565b80156102435780601f1061021857610100808354040283529160200191610243565b820191906000526020600020905b81548152906001019060200180831161022657829003601f168201915b50505050509080600201805461025890610702565b80601f016020809104026020016040519081016040528092919081815260200182805461028490610702565b80156102d15780601f106102a6576101008083540402835291602001916102d1565b820191906000526020600020905b8154815290600101906020018083116102b457829003601f168201915b5050505050905083565b600160008281526020019081526020016000206000808201600090556001820160006103079190610353565b6002820160006103179190610353565b50507f89af6ba62ab348dc535a3187c267090f834c868a3820cd552a7110c3dc3eedb881604051610348919061059b565b60405180910390a150565b50805461035f90610702565b6000825580601f106103715750610390565b601f01602090049060005260206000209081019061038f9190610393565b5b50565b5b808211156103ac576000816000905550600101610394565b5090565b6000604051905090565b600080fd5b600080fd5b600080fd5b600080fd5b6000601f19601f8301169050919050565b7f4e487b7100000000000000000000000000000000000000000000000000000000600052604160045260246000fd5b610417826103ce565b810181811067ffffffffffffffff82111715610436576104356103df565b5b80604052505050565b60006104496103b0565b9050610455828261040e565b919050565b600067ffffffffffffffff821115610475576104746103df565b5b61047e826103ce565b9050602081019050919050565b82818337600083830152505050565b60006104ad6104a88461045a565b61043f565b9050828152602081018484840111156104c9576104c86103c9565b5b6104d484828561048b565b509392505050565b600082601f8301126104f1576104f06103c4565b5b813561050184826020860161049a565b91505092915050565b60008060408385031215610521576105206103ba565b5b600083013567ffffffffffffffff81111561053f5761053e6103bf565b5b61054b858286016104dc565b925050602083013567ffffffffffffffff81111561056c5761056b6103bf565b5b610578858286016104dc565b9150509250929050565b6000819050919050565b61059581610582565b82525050565b60006020820190506105b0600083018461058c565b92915050565b6105bf81610582565b81146105ca57600080fd5b50565b6000813590506105dc816105b6565b92915050565b6000602082840312156105f8576105f76103ba565b5b6000610606848285016105cd565b91505092915050565b600081519050919050565b600082825260208201905092915050565b60005b8381101561064957808201518184015260208101905061062e565b60008484015250505050565b60006106608261060f565b61066a818561061a565b935061067a81856020860161062b565b610683816103ce565b840191505092915050565b60006060820190506106a3600083018661058c565b81810360208301526106b58185610655565b905081810360408301526106c98184610655565b9050949350505050565b7f4e487b7100000000000000000000000000000000000000000000000000000000600052602260045260246000fd5b6000600282049050600182168061071a57607f821691505b60208210810361072d5761072c6106d3565b5b50919050565b60008190508160005260206000209050919050565b60006020601f8301049050919050565b600082821b905092915050565b6000600883026107957fffffffffffffffffffffffffffffffffffffffffffffffffffffffffffffffff82610758565b61079f8683610758565b95508019841693508086168417925050509392505050565b6000819050919050565b60006107dc6107d76107d284610582565b6107b7565b610582565b9050919050565b6000819050919050565b6107f6836107c1565b61080a610802826107e3565b848454610765565b825550505050565b600090565b61081f610812565b61082a8184846107ed565b505050565b5b8181101561084e57610843600082610817565b600181019050610830565b5050565b601f8211156108935761086481610733565b61086d84610748565b8101602085101561087c578190505b61089061088885610748565b83018261082f565b50505b505050565b600082821c905092915050565b60006108b660001984600802610898565b1980831691505092915050565b60006108cf83836108a5565b9150826002028217905092915050565b6108e88261060f565b67ffffffffffffffff811115610901576109006103df565b5b61090b8254610702565b610916828285610852565b600060209050601f8311600181146109495760008415610937578287015190505b61094185826108c3565b8655506109a9565b601f19841661095786610733565b60005b8281101561097f5784890151825560018201915060208501945060208101905061095a565b8683101561099c5784890151610998601f8916826108a5565b8355505b6001600288020188555050505b505050505050565b7f4e487b7100000000000000000000000000000000000000000000000000000000600052601160045260246000fd5b60006109eb82610582565b91507fffffffffffffffffffffffffffffffffffffffffffffffffffffffffffffffff8203610a1d57610a1c6109b1565b5b60018201905091905056fea2646970667358221220278a51376f37ca2421839d44a46b81e9bca80094cc9000d96602cc74a7aba78764736f6c63430008100033",
  "immutableReferences": {},
  "source": "// SPDX-License-Identifier: MIT\npragma solidity >=0.4.16 <0.9.0;\n\ncontract NotesContract {\n    uint256 public noteCount = 0;\n\n    struct Note {\n        uint256 id;\n        string title;\n        string description;\n    }\n\n    mapping(uint256 => Note) public notes;\n\n    event NoteCreated(uint256 id, string title, string description);\n    event NoteDeleted(uint256 id);\n\n    function createNote(string memory _title, string memory _description)\n        public\n    {\n        notes[noteCount] = Note(noteCount, _title, _description);\n        emit NoteCreated(noteCount, _title, _description);\n\n        noteCount++;\n    }\n\n    function deleteNote(uint256 _id) public {\n        // Data Location not specified with uint\n\n        // Data on Blockchain can never be deleted\n        delete notes[_id];\n        emit NoteDeleted(_id);\n    }\n}\n",
  "sourcePath": "/Users/guimgonzalez/Documents/dev/apps/dapp/dapp/contracts/NotesContract.sol",
  "compiler": {
    "name": "solc",
    "version": "0.8.16+commit.07a7930e.Emscripten.clang"
  },
  "schemaVersion": "3.4.9",
  "updatedAt": "2022-08-12T11:33:19.488Z",
  "devdoc": {
    "kind": "dev",
    "methods": {},
    "version": 1
  },
  "userdoc": {
    "kind": "user",
    "methods": {},
    "version": 1
  }
}