{
  "contractName": "NotesContract",
  "abi": [
    {
      "anonymous": false,
      "inputs": [
        {
          "indexed": false,
          "internalType": "uint256",
          "name": "id",
          "type": "uint256"
        },
        {
          "indexed": false,
          "internalType": "string",
          "name": "title",
          "type": "string"
        },
        {
          "indexed": false,
          "internalType": "string",
          "name": "description",
          "type": "string"
        }
      ],
      "name": "NoteCreated",
      "type": "event"
    },
    {
      "anonymous": false,
      "inputs": [
        {
          "indexed": false,
          "internalType": "uint256",
          "name": "id",
          "type": "uint256"
        }
      ],
      "name": "NoteDeleted",
      "type": "event"
    },
    {
      "inputs": [],
      "name": "noteCount",
      "outputs": [
        {
          "internalType": "uint256",
          "name": "",
          "type": "uint256"
        }
      ],
      "stateMutability": "view",
      "type": "function",
      "constant": true
    },
    {
      "inputs": [
        {
          "internalType": "uint256",
          "name": "",
          "type": "uint256"
        }
      ],
      "name": "notes",
      "outputs": [
        {
          "internalType": "uint256",
          "name": "id",
          "type": "uint256"
        },
        {
          "internalType": "address",
          "name": "publicKey",
          "type": "address"
        },
        {
          "internalType": "string",
          "name": "title",
          "type": "string"
        },
        {
          "internalType": "string",
          "name": "description",
          "type": "string"
        }
      ],
      "stateMutability": "view",
      "type": "function",
      "constant": true
    },
    {
      "inputs": [
        {
          "internalType": "string",
          "name": "_title",
          "type": "string"
        },
        {
          "internalType": "string",
          "name": "_description",
          "type": "string"
        }
      ],
      "name": "createNote",
      "outputs": [],
      "stateMutability": "nonpayable",
      "type": "function"
    },
    {
      "inputs": [
        {
          "internalType": "uint256",
          "name": "_id",
          "type": "uint256"
        }
      ],
      "name": "deleteNote",
      "outputs": [],
      "stateMutability": "nonpayable",
      "type": "function"
    }
  ],
  "bytecode": "0x60806040526000805534801561001457600080fd5b50610ba3806100246000396000f3fe608060405234801561001057600080fd5b506004361061004c5760003560e01c80632feaf81714610051578063317a4c761461006d57806361c3a7e61461008b578063c47177f4146100be575b600080fd5b61006b600480360381019061006691906105bb565b6100da565b005b6100756101ff565b604051610082919061064c565b60405180910390f35b6100a560048036038101906100a09190610693565b610205565b6040516100b59493929190610780565b60405180910390f35b6100d860048036038101906100d39190610693565b610365565b005b604051806080016040528060005481526020013373ffffffffffffffffffffffffffffffffffffffff1681526020018381526020018281525060016000805481526020019081526020016000206000820151816000015560208201518160010160006101000a81548173ffffffffffffffffffffffffffffffffffffffff021916908373ffffffffffffffffffffffffffffffffffffffff160217905550604082015181600201908161018d91906109df565b5060608201518160030190816101a391906109df565b509050507f7b17cec98a34b9bfb820ec7d14bde246bd07fe7d020da060964a681219ce972560005483836040516101dc93929190610ab1565b60405180910390a16000808154809291906101f690610b25565b91905055505050565b60005481565b60016020528060005260406000206000915090508060000154908060010160009054906101000a900473ffffffffffffffffffffffffffffffffffffffff169080600201805461025490610802565b80601f016020809104026020016040519081016040528092919081815260200182805461028090610802565b80156102cd5780601f106102a2576101008083540402835291602001916102cd565b820191906000526020600020905b8154815290600101906020018083116102b057829003601f168201915b5050505050908060030180546102e290610802565b80601f016020809104026020016040519081016040528092919081815260200182805461030e90610802565b801561035b5780601f106103305761010080835404028352916020019161035b565b820191906000526020600020905b81548152906001019060200180831161033e57829003601f168201915b5050505050905084565b600160008281526020019081526020016000206000808201600090556001820160006101000a81549073ffffffffffffffffffffffffffffffffffffffff02191690556002820160006103b89190610404565b6003820160006103c89190610404565b50507f89af6ba62ab348dc535a3187c267090f834c868a3820cd552a7110c3dc3eedb8816040516103f9919061064c565b60405180910390a150565b50805461041090610802565b6000825580601f106104225750610441565b601f0160209004906000526020600020908101906104409190610444565b5b50565b5b8082111561045d576000816000905550600101610445565b5090565b6000604051905090565b600080fd5b600080fd5b600080fd5b600080fd5b6000601f19601f8301169050919050565b7f4e487b7100000000000000000000000000000000000000000000000000000000600052604160045260246000fd5b6104c88261047f565b810181811067ffffffffffffffff821117156104e7576104e6610490565b5b80604052505050565b60006104fa610461565b905061050682826104bf565b919050565b600067ffffffffffffffff82111561052657610525610490565b5b61052f8261047f565b9050602081019050919050565b82818337600083830152505050565b600061055e6105598461050b565b6104f0565b90508281526020810184848401111561057a5761057961047a565b5b61058584828561053c565b509392505050565b600082601f8301126105a2576105a1610475565b5b81356105b284826020860161054b565b91505092915050565b600080604083850312156105d2576105d161046b565b5b600083013567ffffffffffffffff8111156105f0576105ef610470565b5b6105fc8582860161058d565b925050602083013567ffffffffffffffff81111561061d5761061c610470565b5b6106298582860161058d565b9150509250929050565b6000819050919050565b61064681610633565b82525050565b6000602082019050610661600083018461063d565b92915050565b61067081610633565b811461067b57600080fd5b50565b60008135905061068d81610667565b92915050565b6000602082840312156106a9576106a861046b565b5b60006106b78482850161067e565b91505092915050565b600073ffffffffffffffffffffffffffffffffffffffff82169050919050565b60006106eb826106c0565b9050919050565b6106fb816106e0565b82525050565b600081519050919050565b600082825260208201905092915050565b60005b8381101561073b578082015181840152602081019050610720565b60008484015250505050565b600061075282610701565b61075c818561070c565b935061076c81856020860161071d565b6107758161047f565b840191505092915050565b6000608082019050610795600083018761063d565b6107a260208301866106f2565b81810360408301526107b48185610747565b905081810360608301526107c88184610747565b905095945050505050565b7f4e487b7100000000000000000000000000000000000000000000000000000000600052602260045260246000fd5b6000600282049050600182168061081a57607f821691505b60208210810361082d5761082c6107d3565b5b50919050565b60008190508160005260206000209050919050565b60006020601f8301049050919050565b600082821b905092915050565b6000600883026108957fffffffffffffffffffffffffffffffffffffffffffffffffffffffffffffffff82610858565b61089f8683610858565b95508019841693508086168417925050509392505050565b6000819050919050565b60006108dc6108d76108d284610633565b6108b7565b610633565b9050919050565b6000819050919050565b6108f6836108c1565b61090a610902826108e3565b848454610865565b825550505050565b600090565b61091f610912565b61092a8184846108ed565b505050565b5b8181101561094e57610943600082610917565b600181019050610930565b5050565b601f8211156109935761096481610833565b61096d84610848565b8101602085101561097c578190505b61099061098885610848565b83018261092f565b50505b505050565b600082821c905092915050565b60006109b660001984600802610998565b1980831691505092915050565b60006109cf83836109a5565b9150826002028217905092915050565b6109e882610701565b67ffffffffffffffff811115610a0157610a00610490565b5b610a0b8254610802565b610a16828285610952565b600060209050601f831160018114610a495760008415610a37578287015190505b610a4185826109c3565b865550610aa9565b601f198416610a5786610833565b60005b82811015610a7f57848901518255600182019150602085019450602081019050610a5a565b86831015610a9c5784890151610a98601f8916826109a5565b8355505b6001600288020188555050505b505050505050565b6000606082019050610ac6600083018661063d565b8181036020830152610ad88185610747565b90508181036040830152610aec8184610747565b9050949350505050565b7f4e487b7100000000000000000000000000000000000000000000000000000000600052601160045260246000fd5b6000610b3082610633565b91507fffffffffffffffffffffffffffffffffffffffffffffffffffffffffffffffff8203610b6257610b61610af6565b5b60018201905091905056fea2646970667358221220636cb2da46118c271984d2adfbf366362186bb611702f7879dfe8f0ce171769f64736f6c63430008100033",
  "immutableReferences": {},
  "source": "// SPDX-License-Identifier: MIT\npragma solidity >=0.4.16 <0.9.0;\n\ncontract NotesContract {\n    uint256 public noteCount = 0;\n\n    struct Note {\n        uint256 id;\n        address publicKey;\n        string title;\n        string description;\n    }\n\n    mapping(uint256 => Note) public notes;\n\n    event NoteCreated(uint256 id, string title, string description);\n    event NoteDeleted(uint256 id);\n\n    function createNote(string memory _title, string memory _description)\n        public\n    {\n        notes[noteCount] = Note(noteCount, msg.sender, _title, _description);\n        emit NoteCreated(noteCount, _title, _description);\n\n        noteCount++;\n    }\n\n    function deleteNote(uint256 _id) public {\n        delete notes[_id];\n        emit NoteDeleted(_id);\n    }\n}\n",
  "sourcePath": "/Users/guimgonzalez/Documents/dev/apps/flutter_dapp_example/dapp_contracts/contracts/NotesContract.sol",
  "compiler": {
    "name": "solc",
    "version": "0.8.16+commit.07a7930e.Emscripten.clang"
  },
  "schemaVersion": "3.4.9",
  "updatedAt": "2022-08-14T13:15:59.997Z",
  "networkType": "ethereum",
  "devdoc": {
    "kind": "dev",
    "methods": {},
    "version": 1
  },
  "userdoc": {
    "kind": "user",
    "methods": {},
    "version": 1
  }
}